:04000000803114280F
:100008007E1480314E018D180A280B280F280D1DEB
:100018000E280F28122880312D2080317E100900EB
:1000280080311628813194218031F90071308400A3
:1000380081308500343086000030870008308131F7
:1000480079218031F401F501F6017E1040018031FB
:1000580094284E018D1C31283228832843010F1E15
:1000680036283728442840012C082D0403193D2838
:100078003E2883282D088A002C080A00803183280E
:100088000F1D472848285A2840012E082F04031915
:100098004E284F2857282F088A002E080A0080313A
:1000A80043018C00832843018C0183280F195D28A4
:1000B8005E2883288F1A6128622866280C08F300B6
:1000C8007308F4008F1E69286A28832840013008C5
:1000D80031040319702871287D2843010C08F300A6
:1000E8007308F000400131088A0030080A008031A6
:1000F800832843010C08F3007308F40083284E0199
:100108000D1D872888288F2843010C08F3007308E1
:10011800F4004E010D11430110164E018D10080018
:10012800813137218031603081311C218031FB30B1
:100138004001A0000030A100813185218031D930F3
:100148004001A0000030A10081318B21803149306D
:100158004001A0000130A10081317F21803134307D
:100168008600003087002430840000308500083085
:100178004001A30016001A00A30BBE280830A300F4
:100188002308A000243081316621803104304001E9
:10019800A3002308A000243081315B218031813104
:1001A80091218031D628803114280130F000700860
:1001B800F600F201770875020318E328E428F4280A
:1001C800750840013207F0007008860087010108B1
:1001D800F1007108F2000130F0007008F507F92805
:1001E8007708013EF0007008F500720808007908E9
:1001F800031DFF2800291629780875020318052908
:1002080006291B297008F100750840013307F20020
:10021800720886008701710881000130F1007108B9
:10022800F5071B29F9017008F1007108F5000800AD
:100238004001A00043019001910192018F018F17A5
:100248001008F039063890001114121512174001E1
:10025800203543018D004E010D118D10171597148F
:100268004301901608004001131613177E0143122C
:1002780043134516451708309C0007309E000C3084
:100288007D01C6000E30C5000800760803194D2907
:100298004E29552975080319522953295529013022
:1002A800F5020130F0007008F900F601080040017D
:1002B800A2002208A1002108B3002008A1002108FB
:1002C800F80008004001A2002208A1002108B2009D
:1002D8002008A1002108F700080000340134023486
:1002E80003340434053406340734FE0012001E00BB
:1002F800FE0B7A29003440012108AD002008AC002B
:10030800080040012108B1002008B00008004001A1
:100318002108AF002008AE0008000B178B17080053
:0203280001349E
:020000040001F9
:04000E00CD3FE73FBC
:04001400FF3FFF3F6C
:00000001FF
