:0400000080310F2814
:100008007E1480314E018D180B280D1D0D2880316E
:100018009F207E100900803111280130FB00AB01C0
:10002800AC000230AD000330AE000430AF00053044
:10003800B0000630B1000730B200F501F601F70153
:100048007E10400127288120803160305A2080317D
:10005800F9304001A0000030A10077208031E43061
:10006800A0000030A100722080310D30A0000130C6
:10007800A1007C2080312B3086000030870023309F
:100088008400003085000830A20016001A00A20B78
:1000980049280830FA002330952080310430FA00CE
:1000A80023309A208031922080315928FA00430168
:1000B8009001910192018F018F171008F0390638CD
:1000C80090001114121512177A358D004E010D117A
:1000D8008D10171597144301901608002108B600D3
:1000E8002008B50008002108F1002008F0000800E9
:1000F8002108B4002008B3000800131613177E0166
:10010800431243134516451708309C0007309E00DC
:100118000C307D01C6000E30C50008000B178B1788
:100128000800A000B7007A08F2000800A000F40058
:100138007A08F30008008D1CD72843010F1EAF284A
:100148004001330834040319D72834088A003308D7
:100158000A008031D7280F1DC12840013508360410
:100168000319BE2836088A0035080A008031430181
:100178008C00D72843018C01D7280F19D7288F1A4C
:10018800C7280C08F5008F1ED728700871040319BA
:10019800D5280C08F80071088A0070080A00803118
:1001A800D7280C08F5004E010D1DDF2843010C0867
:1001B800F5004E010D11430110164E018D10080077
:1001C8000130F700F901720876020318F42876085E
:1001D8003707F800860087010108F900F60AF728B2
:1001E8007208013EF600790808007B08031D0929FA
:1001F800730876020318080076087407F900860069
:10020800870178088100F60A0800FB017808F600E3
:100218000800770803191429760803191429F60326
:080228000130FB00F7010800A2
:020000040001F9
:04000E00CD3FE73FBC
:04001400FF3FFF3F6C
:00000001FF
