:08000000803102288731FA2F3C
:100DE4007A30F6007608F30060308731CF278631F9
:100DF400F7007708FD0008000330F6007608F300DA
:100E0400603087315B278631F7007708FD000800E2
:100E1400430111150F0C890C0139F00011081F3919
:100E24007004031D162F172F0C2F00000800430118
:100E340090018F01910192018F171008F039083841
:100E440090004F308D004E018D1097104301901685
:100E540008004001131613177E014312431345166D
:100E6400451708309C0007309E000C307D01C600F9
:100E74000E30C500080087312B27873187311927A9
:100E84008731FD018631FE2687318631F22687318E
:100E9400F801F9010130F8070030F93D780A031D23
:100EA400572F790A031D572F582F4C2F442F803169
:100EB4000228F500750887317A278731003A031D27
:100EC400642F652F672F0030792F730843018C003E
:100ED4000F0C890C0139F40011081F397404031D27
:100EE400742F752F6A2F87310A2787310130080044
:100EF400F20043010F0C890C0139F10011081F396C
:100F04007104031D862F872F7B2F111411188B2F2B
:100F14008C2F882F72358C000F0C890C0139F1004D
:100F240011081F397104031D982F992F8E2F111F3B
:100F34009C2F9D2FA22F87310A2787310030A32FA2
:100F440001300800F20043010F0C890C0139F10053
:100F540011081F397104031DB02FB12FA52F1114CF
:100F64001118B52FB62FB22F0314720D8C000F0C6D
:100F7400890C0139F10011081F397104031DC32FB5
:100F8400C42FB92F111FC72FC82FCD2F87310A2780
:100F940087310030CE2F01300800F5007508873105
:100FA400A4278731003A031DD82FD92FDB2F003017
:100FB400F92F430191150F0C890C0139F400110824
:100FC4001F397404031DE72FE82FDD2F0C08F400EC
:100FD4007308860087017408810091161116111A8E
:100FE400F42FF52FF12F87310A27873101300800BC
:0C0FF400FA01FB01FC01400187313D2F98
:020000040001F9
:04000E00CD3FE73FBC
:04001400FF3FFF3F6C
:00000001FF
